{
  "_format": "hh-sol-artifact-1",
  "contractName": "ADRegistration",
  "sourceName": "contracts/ADRegistration.sol",
  "abi": [
    {
      "anonymous": false,
      "inputs": [
        {
          "indexed": false,
          "internalType": "address",
          "name": "ADAddress",
          "type": "address"
        }
      ],
      "name": "ADRegistered",
      "type": "event"
    },
    {
      "inputs": [],
      "name": "emitRegistrationEvent",
      "outputs": [],
      "stateMutability": "nonpayable",
      "type": "function"
    },
    {
      "inputs": [],
      "name": "registerAsAD",
      "outputs": [],
      "stateMutability": "nonpayable",
      "type": "function"
    },
    {
      "inputs": [
        {
          "internalType": "address",
          "name": "",
          "type": "address"
        }
      ],
      "name": "registeredAD",
      "outputs": [
        {
          "internalType": "bool",
          "name": "",
          "type": "bool"
        }
      ],
      "stateMutability": "view",
      "type": "function"
    }
  ],
  "bytecode": "0x608060405234801561001057600080fd5b506103c7806100206000396000f3fe608060405234801561001057600080fd5b50600436106100415760003560e01c8063b8741de714610046578063caa0b19314610050578063f786a30214610080575b600080fd5b61004e61008a565b005b61006a60048036038101906100659190610261565b61011a565b60405161007791906102a9565b60405180910390f35b61008861013a565b005b60016000803373ffffffffffffffffffffffffffffffffffffffff1673ffffffffffffffffffffffffffffffffffffffff16815260200190815260200160002060006101000a81548160ff0219169083151502179055507fd7ed503c33118e08ebb0b356b1f1a8936077833ac467442de6adf4e17acae98f3360405161011091906102d3565b60405180910390a1565b60006020528060005260406000206000915054906101000a900460ff1681565b6000803373ffffffffffffffffffffffffffffffffffffffff1673ffffffffffffffffffffffffffffffffffffffff16815260200190815260200160002060009054906101000a900460ff166101c5576040517f08c379a00000000000000000000000000000000000000000000000000000000081526004016101bc90610371565b60405180910390fd5b7fd7ed503c33118e08ebb0b356b1f1a8936077833ac467442de6adf4e17acae98f336040516101f491906102d3565b60405180910390a1565b600080fd5b600073ffffffffffffffffffffffffffffffffffffffff82169050919050565b600061022e82610203565b9050919050565b61023e81610223565b811461024957600080fd5b50565b60008135905061025b81610235565b92915050565b600060208284031215610277576102766101fe565b5b60006102858482850161024c565b91505092915050565b60008115159050919050565b6102a38161028e565b82525050565b60006020820190506102be600083018461029a565b92915050565b6102cd81610223565b82525050565b60006020820190506102e860008301846102c4565b92915050565b600082825260208201905092915050565b7f53656e646572206973206e6f742072656769737465726564206173206120414460008201527f2e00000000000000000000000000000000000000000000000000000000000000602082015250565b600061035b6021836102ee565b9150610366826102ff565b604082019050919050565b6000602082019050818103600083015261038a8161034e565b905091905056fea26469706673582212207a115912fcfe4eb4af2f66e297d977305b8c575d97de26ad5d7d7a3328ba22db64736f6c63430008180033",
  "linkReferences": {},
  "deployedLinkReferences": {}
}