{
  "_format": "hh-sol-artifact-1",
  "contractName": "ClientRegistration",
  "sourceName": "contracts/ClientRegistration.sol",
  "abi": [
    {
      "anonymous": false,
      "inputs": [
        {
          "indexed": false,
          "internalType": "address",
          "name": "clientAddress",
          "type": "address"
        }
      ],
      "name": "ClientRegistered",
      "type": "event"
    },
    {
      "inputs": [],
      "name": "emitRegistrationEvent",
      "outputs": [],
      "stateMutability": "nonpayable",
      "type": "function"
    },
    {
      "inputs": [],
      "name": "registerAsClient",
      "outputs": [],
      "stateMutability": "nonpayable",
      "type": "function"
    },
    {
      "inputs": [
        {
          "internalType": "address",
          "name": "",
          "type": "address"
        }
      ],
      "name": "registeredClients",
      "outputs": [
        {
          "internalType": "bool",
          "name": "",
          "type": "bool"
        }
      ],
      "stateMutability": "view",
      "type": "function"
    }
  ],
  "bytecode": "0x608060405234801561001057600080fd5b50610390806100206000396000f3fe608060405234801561001057600080fd5b50600436106100415760003560e01c80630e18c290146100465780634bc1625314610076578063f786a30214610080575b600080fd5b610060600480360381019061005b919061022a565b61008a565b60405161006d9190610272565b60405180910390f35b61007e6100aa565b005b610088610103565b005b60006020528060005260406000206000915054906101000a900460ff1681565b60016000803373ffffffffffffffffffffffffffffffffffffffff1673ffffffffffffffffffffffffffffffffffffffff16815260200190815260200160002060006101000a81548160ff021916908315150217905550565b6000803373ffffffffffffffffffffffffffffffffffffffff1673ffffffffffffffffffffffffffffffffffffffff16815260200190815260200160002060009054906101000a900460ff1661018e576040517f08c379a000000000000000000000000000000000000000000000000000000000815260040161018590610310565b60405180910390fd5b7f2ce5ee634dc8e65bbbad43d4ca6b4413f261b6a5dd89d79f5db67892e4512d1a336040516101bd919061033f565b60405180910390a1565b600080fd5b600073ffffffffffffffffffffffffffffffffffffffff82169050919050565b60006101f7826101cc565b9050919050565b610207816101ec565b811461021257600080fd5b50565b600081359050610224816101fe565b92915050565b6000602082840312156102405761023f6101c7565b5b600061024e84828501610215565b91505092915050565b60008115159050919050565b61026c81610257565b82525050565b60006020820190506102876000830184610263565b92915050565b600082825260208201905092915050565b7f53656e646572206973206e6f742072656769737465726564206173206120636c60008201527f69656e742e000000000000000000000000000000000000000000000000000000602082015250565b60006102fa60258361028d565b91506103058261029e565b604082019050919050565b60006020820190508181036000830152610329816102ed565b9050919050565b610339816101ec565b82525050565b60006020820190506103546000830184610330565b9291505056fea26469706673582212201e53ee9ef5e07927f5e775c25c08aa05871933df8acb97a9da4a254c912f462e64736f6c63430008180033",
  "linkReferences": {},
  "deployedLinkReferences": {}
}