{
  "_format": "hh-sol-artifact-1",
  "contractName": "SLABillingLocal",
  "sourceName": "contracts/SLABillingLocal.sol",
  "abi": [
    {
      "anonymous": false,
      "inputs": [
        {
          "indexed": true,
          "internalType": "address",
          "name": "userAddress",
          "type": "address"
        },
        {
          "indexed": false,
          "internalType": "uint256",
          "name": "finalBill",
          "type": "uint256"
        }
      ],
      "name": "BillCalculated",
      "type": "event"
    },
    {
      "anonymous": false,
      "inputs": [
        {
          "indexed": true,
          "internalType": "address",
          "name": "from",
          "type": "address"
        },
        {
          "indexed": true,
          "internalType": "address",
          "name": "to",
          "type": "address"
        },
        {
          "indexed": false,
          "internalType": "uint256",
          "name": "amount",
          "type": "uint256"
        }
      ],
      "name": "FundsTransferred",
      "type": "event"
    },
    {
      "inputs": [],
      "name": "breachCount",
      "outputs": [
        {
          "internalType": "uint256",
          "name": "",
          "type": "uint256"
        }
      ],
      "stateMutability": "view",
      "type": "function"
    },
    {
      "inputs": [
        {
          "internalType": "address",
          "name": "userAddress",
          "type": "address"
        }
      ],
      "name": "calculateFinalBill",
      "outputs": [],
      "stateMutability": "nonpayable",
      "type": "function"
    },
    {
      "inputs": [
        {
          "internalType": "address",
          "name": "",
          "type": "address"
        }
      ],
      "name": "finalBills",
      "outputs": [
        {
          "internalType": "uint256",
          "name": "",
          "type": "uint256"
        }
      ],
      "stateMutability": "view",
      "type": "function"
    },
    {
      "inputs": [
        {
          "internalType": "address",
          "name": "userAddress",
          "type": "address"
        }
      ],
      "name": "getBillDetails",
      "outputs": [
        {
          "internalType": "uint256",
          "name": "penaltyAmount",
          "type": "uint256"
        },
        {
          "internalType": "uint256",
          "name": "finalBill",
          "type": "uint256"
        }
      ],
      "stateMutability": "view",
      "type": "function"
    },
    {
      "inputs": [
        {
          "internalType": "address",
          "name": "",
          "type": "address"
        }
      ],
      "name": "penaltyAmounts",
      "outputs": [
        {
          "internalType": "uint256",
          "name": "",
          "type": "uint256"
        }
      ],
      "stateMutability": "view",
      "type": "function"
    },
    {
      "inputs": [],
      "name": "penaltyRate",
      "outputs": [
        {
          "internalType": "uint256",
          "name": "",
          "type": "uint256"
        }
      ],
      "stateMutability": "view",
      "type": "function"
    },
    {
      "inputs": [],
      "name": "penaltyScore",
      "outputs": [
        {
          "internalType": "uint256",
          "name": "",
          "type": "uint256"
        }
      ],
      "stateMutability": "view",
      "type": "function"
    },
    {
      "inputs": [
        {
          "internalType": "address",
          "name": "userAddress",
          "type": "address"
        }
      ],
      "name": "recordPenaltyAmount",
      "outputs": [],
      "stateMutability": "nonpayable",
      "type": "function"
    },
    {
      "inputs": [],
      "name": "serviceCost",
      "outputs": [
        {
          "internalType": "uint256",
          "name": "",
          "type": "uint256"
        }
      ],
      "stateMutability": "view",
      "type": "function"
    },
    {
      "inputs": [
        {
          "internalType": "address payable",
          "name": "recipient",
          "type": "address"
        },
        {
          "internalType": "uint256",
          "name": "amount",
          "type": "uint256"
        }
      ],
      "name": "transferFunds",
      "outputs": [],
      "stateMutability": "payable",
      "type": "function"
    }
  ],
  "bytecode": "0x608060405234801561001057600080fd5b506108d8806100206000396000f3fe6080604052600436106100915760003560e01c8063990dc9db11610059578063990dc9db1461018f578063bfc46306146101ab578063c14eb992146101d6578063d15c2745146101ff578063d6b7494f1461023d57610091565b80631388f139146100965780631c47b5c6146100d357806325e2e5de146100fe578063269ddd9a1461012757806350206d5c14610152575b600080fd5b3480156100a257600080fd5b506100bd60048036038101906100b8919061064c565b610268565b6040516100ca9190610692565b60405180910390f35b3480156100df57600080fd5b506100e8610280565b6040516100f59190610692565b60405180910390f35b34801561010a57600080fd5b506101256004803603810190610120919061064c565b61028c565b005b34801561013357600080fd5b5061013c610378565b6040516101499190610692565b60405180910390f35b34801561015e57600080fd5b506101796004803603810190610174919061064c565b61037d565b6040516101869190610692565b60405180910390f35b6101a960048036038101906101a49190610717565b610395565b005b3480156101b757600080fd5b506101c06104e3565b6040516101cd9190610692565b60405180910390f35b3480156101e257600080fd5b506101fd60048036038101906101f8919061064c565b6104e8565b005b34801561020b57600080fd5b506102266004803603810190610221919061064c565b610553565b604051610234929190610757565b60405180910390f35b34801561024957600080fd5b506102526105de565b60405161025f9190610692565b60405180910390f35b60006020528060005260406000206000915090505481565b670de0b6b3a764000081565b60008060008373ffffffffffffffffffffffffffffffffffffffff1673ffffffffffffffffffffffffffffffffffffffff16815260200190815260200160002054670de0b6b3a76400006102e091906107af565b905080600160008473ffffffffffffffffffffffffffffffffffffffff1673ffffffffffffffffffffffffffffffffffffffff168152602001908152602001600020819055508173ffffffffffffffffffffffffffffffffffffffff167f85cef5dc15666b0457f481ff73b1c5472fd179058cb173a4f18ebc02ea5632fb8260405161036c9190610692565b60405180910390a25050565b600381565b60016020528060005260406000206000915090505481565b803410156103d8576040517f08c379a00000000000000000000000000000000000000000000000000000000081526004016103cf90610840565b60405180910390fd5b8173ffffffffffffffffffffffffffffffffffffffff166108fc829081150290604051600060405180830381858888f1935050505015801561041e573d6000803e3d6000fd5b508173ffffffffffffffffffffffffffffffffffffffff163373ffffffffffffffffffffffffffffffffffffffff167f78e6250172d8e0a57d8d41f480f13581571a2d27bb2a93f5f7bd2511f5c22a6c8360405161047c9190610692565b60405180910390a3803411156104df573373ffffffffffffffffffffffffffffffffffffffff166108fc82346104b291906107af565b9081150290604051600060405180830381858888f193505050501580156104dd573d6000803e3d6000fd5b505b5050565b600b81565b600066038d7ea4c680006003600b6105009190610860565b61050a9190610860565b9050806000808473ffffffffffffffffffffffffffffffffffffffff1673ffffffffffffffffffffffffffffffffffffffff168152602001908152602001600020819055505050565b6000806000808473ffffffffffffffffffffffffffffffffffffffff1673ffffffffffffffffffffffffffffffffffffffff16815260200190815260200160002054600160008573ffffffffffffffffffffffffffffffffffffffff1673ffffffffffffffffffffffffffffffffffffffff1681526020019081526020016000205491509150915091565b66038d7ea4c6800081565b600080fd5b600073ffffffffffffffffffffffffffffffffffffffff82169050919050565b6000610619826105ee565b9050919050565b6106298161060e565b811461063457600080fd5b50565b60008135905061064681610620565b92915050565b600060208284031215610662576106616105e9565b5b600061067084828501610637565b91505092915050565b6000819050919050565b61068c81610679565b82525050565b60006020820190506106a76000830184610683565b92915050565b60006106b8826105ee565b9050919050565b6106c8816106ad565b81146106d357600080fd5b50565b6000813590506106e5816106bf565b92915050565b6106f481610679565b81146106ff57600080fd5b50565b600081359050610711816106eb565b92915050565b6000806040838503121561072e5761072d6105e9565b5b600061073c858286016106d6565b925050602061074d85828601610702565b9150509250929050565b600060408201905061076c6000830185610683565b6107796020830184610683565b9392505050565b7f4e487b7100000000000000000000000000000000000000000000000000000000600052601160045260246000fd5b60006107ba82610679565b91506107c583610679565b92508282039050818111156107dd576107dc610780565b5b92915050565b600082825260208201905092915050565b7f496e73756666696369656e742066756e64732073656e74000000000000000000600082015250565b600061082a6017836107e3565b9150610835826107f4565b602082019050919050565b600060208201905081810360008301526108598161081d565b9050919050565b600061086b82610679565b915061087683610679565b925082820261088481610679565b9150828204841483151761089b5761089a610780565b5b509291505056fea264697066735822122094997c022ce8b46ece3dfed91d0b49372a0d2bbc82db33ebf86f3b6e2b2febed64736f6c63430008180033",
  "linkReferences": {},
  "deployedLinkReferences": {}
}