{
  "_format": "hh-sol-artifact-1",
  "contractName": "registerServer",
  "sourceName": "contracts/registerServer.sol",
  "abi": [
    {
      "inputs": [],
      "stateMutability": "nonpayable",
      "type": "constructor"
    },
    {
      "inputs": [],
      "name": "admin",
      "outputs": [
        {
          "internalType": "address",
          "name": "",
          "type": "address"
        }
      ],
      "stateMutability": "view",
      "type": "function"
    },
    {
      "inputs": [
        {
          "internalType": "address",
          "name": "userAddress",
          "type": "address"
        }
      ],
      "name": "getUser",
      "outputs": [
        {
          "internalType": "string",
          "name": "",
          "type": "string"
        },
        {
          "internalType": "address",
          "name": "",
          "type": "address"
        }
      ],
      "stateMutability": "view",
      "type": "function"
    },
    {
      "inputs": [
        {
          "internalType": "string",
          "name": "username",
          "type": "string"
        }
      ],
      "name": "registerUser",
      "outputs": [],
      "stateMutability": "nonpayable",
      "type": "function"
    },
    {
      "inputs": [
        {
          "internalType": "address",
          "name": "",
          "type": "address"
        }
      ],
      "name": "users",
      "outputs": [
        {
          "internalType": "string",
          "name": "username",
          "type": "string"
        },
        {
          "internalType": "address",
          "name": "userAddress",
          "type": "address"
        }
      ],
      "stateMutability": "view",
      "type": "function"
    }
  ],
  "bytecode": "0x608060405234801561001057600080fd5b5033600160006101000a81548173ffffffffffffffffffffffffffffffffffffffff021916908373ffffffffffffffffffffffffffffffffffffffff160217905550610ba1806100616000396000f3fe608060405234801561001057600080fd5b506004361061004c5760003560e01c80636f77926b14610051578063704f1b9414610082578063a87430ba1461009e578063f851a440146100cf575b600080fd5b61006b600480360381019061006691906105b3565b6100ed565b60405161007992919061067f565b60405180910390f35b61009c60048036038101906100979190610714565b6102b8565b005b6100b860048036038101906100b391906105b3565b610459565b6040516100c692919061067f565b60405180910390f35b6100d7610525565b6040516100e49190610761565b60405180910390f35b60606000806000808573ffffffffffffffffffffffffffffffffffffffff1673ffffffffffffffffffffffffffffffffffffffff168152602001908152602001600020600001805461013e906107ab565b905011610180576040517f08c379a000000000000000000000000000000000000000000000000000000000815260040161017790610828565b60405180910390fd5b6000808473ffffffffffffffffffffffffffffffffffffffff1673ffffffffffffffffffffffffffffffffffffffff1681526020019081526020016000206000016000808573ffffffffffffffffffffffffffffffffffffffff1673ffffffffffffffffffffffffffffffffffffffff16815260200190815260200160002060010160009054906101000a900473ffffffffffffffffffffffffffffffffffffffff1681805461022f906107ab565b80601f016020809104026020016040519081016040528092919081815260200182805461025b906107ab565b80156102a85780601f1061027d576101008083540402835291602001916102a8565b820191906000526020600020905b81548152906001019060200180831161028b57829003601f168201915b5050505050915091509150915091565b60008060003373ffffffffffffffffffffffffffffffffffffffff1673ffffffffffffffffffffffffffffffffffffffff1681526020019081526020016000206000018054610306906107ab565b905014610348576040517f08c379a000000000000000000000000000000000000000000000000000000000815260040161033f90610894565b60405180910390fd5b604051806040016040528083838080601f016020809104026020016040519081016040528093929190818152602001838380828437600081840152601f19601f8201169050808301925050505050505081526020013373ffffffffffffffffffffffffffffffffffffffff168152506000803373ffffffffffffffffffffffffffffffffffffffff1673ffffffffffffffffffffffffffffffffffffffff168152602001908152602001600020600082015181600001908161040a9190610a99565b5060208201518160010160006101000a81548173ffffffffffffffffffffffffffffffffffffffff021916908373ffffffffffffffffffffffffffffffffffffffff1602179055509050505050565b600060205280600052604060002060009150905080600001805461047c906107ab565b80601f01602080910402602001604051908101604052809291908181526020018280546104a8906107ab565b80156104f55780601f106104ca576101008083540402835291602001916104f5565b820191906000526020600020905b8154815290600101906020018083116104d857829003601f168201915b5050505050908060010160009054906101000a900473ffffffffffffffffffffffffffffffffffffffff16905082565b600160009054906101000a900473ffffffffffffffffffffffffffffffffffffffff1681565b600080fd5b600080fd5b600073ffffffffffffffffffffffffffffffffffffffff82169050919050565b600061058082610555565b9050919050565b61059081610575565b811461059b57600080fd5b50565b6000813590506105ad81610587565b92915050565b6000602082840312156105c9576105c861054b565b5b60006105d78482850161059e565b91505092915050565b600081519050919050565b600082825260208201905092915050565b60005b8381101561061a5780820151818401526020810190506105ff565b60008484015250505050565b6000601f19601f8301169050919050565b6000610642826105e0565b61064c81856105eb565b935061065c8185602086016105fc565b61066581610626565b840191505092915050565b61067981610575565b82525050565b600060408201905081810360008301526106998185610637565b90506106a86020830184610670565b9392505050565b600080fd5b600080fd5b600080fd5b60008083601f8401126106d4576106d36106af565b5b8235905067ffffffffffffffff8111156106f1576106f06106b4565b5b60208301915083600182028301111561070d5761070c6106b9565b5b9250929050565b6000806020838503121561072b5761072a61054b565b5b600083013567ffffffffffffffff81111561074957610748610550565b5b610755858286016106be565b92509250509250929050565b60006020820190506107766000830184610670565b92915050565b7f4e487b7100000000000000000000000000000000000000000000000000000000600052602260045260246000fd5b600060028204905060018216806107c357607f821691505b6020821081036107d6576107d561077c565b5b50919050565b7f55736572206e6f7420726567697374657265642e000000000000000000000000600082015250565b60006108126014836105eb565b915061081d826107dc565b602082019050919050565b6000602082019050818103600083015261084181610805565b9050919050565b7f5573657220616c726561647920726567697374657265642e0000000000000000600082015250565b600061087e6018836105eb565b915061088982610848565b602082019050919050565b600060208201905081810360008301526108ad81610871565b9050919050565b7f4e487b7100000000000000000000000000000000000000000000000000000000600052604160045260246000fd5b60008190508160005260206000209050919050565b60006020601f8301049050919050565b600082821b905092915050565b6000600883026109457fffffffffffffffffffffffffffffffffffffffffffffffffffffffffffffffff82610908565b61094f8683610908565b95508019841693508086168417925050509392505050565b6000819050919050565b6000819050919050565b600061099661099161098c84610967565b610971565b610967565b9050919050565b6000819050919050565b6109b08361097b565b6109c46109bc8261099d565b848454610915565b825550505050565b600090565b6109d96109cc565b6109e48184846109a7565b505050565b5b81811015610a08576109fd6000826109d1565b6001810190506109ea565b5050565b601f821115610a4d57610a1e816108e3565b610a27846108f8565b81016020851015610a36578190505b610a4a610a42856108f8565b8301826109e9565b50505b505050565b600082821c905092915050565b6000610a7060001984600802610a52565b1980831691505092915050565b6000610a898383610a5f565b9150826002028217905092915050565b610aa2826105e0565b67ffffffffffffffff811115610abb57610aba6108b4565b5b610ac582546107ab565b610ad0828285610a0c565b600060209050601f831160018114610b035760008415610af1578287015190505b610afb8582610a7d565b865550610b63565b601f198416610b11866108e3565b60005b82811015610b3957848901518255600182019150602085019450602081019050610b14565b86831015610b565784890151610b52601f891682610a5f565b8355505b6001600288020188555050505b50505050505056fea26469706673582212207e0576a0e8f516df1ab6d3fb8db3cb25b2a307823fc8f9612ced047b4f244fd764736f6c63430008180033",
  "linkReferences": {},
  "deployedLinkReferences": {}
}