{
  "_format": "hh-sol-artifact-1",
  "contractName": "transferSepolia",
  "sourceName": "contracts/transferSepolia.sol",
  "abi": [
    {
      "inputs": [
        {
          "internalType": "address payable",
          "name": "recipient",
          "type": "address"
        }
      ],
      "name": "transferFunds",
      "outputs": [],
      "stateMutability": "payable",
      "type": "function"
    }
  ],
  "bytecode": "0x608060405234801561001057600080fd5b5061020f806100206000396000f3fe60806040526004361061001e5760003560e01c8063e39ff19f14610023575b600080fd5b61003d6004803603810190610038919061012f565b61003f565b005b60003411610082576040517f08c379a0000000000000000000000000000000000000000000000000000000008152600401610079906101b9565b60405180910390fd5b8073ffffffffffffffffffffffffffffffffffffffff166108fc349081150290604051600060405180830381858888f193505050501580156100c8573d6000803e3d6000fd5b5050565b600080fd5b600073ffffffffffffffffffffffffffffffffffffffff82169050919050565b60006100fc826100d1565b9050919050565b61010c816100f1565b811461011757600080fd5b50565b60008135905061012981610103565b92915050565b600060208284031215610145576101446100cc565b5b60006101538482850161011a565b91505092915050565b600082825260208201905092915050565b7f4e6f2066756e64732073656e7400000000000000000000000000000000000000600082015250565b60006101a3600d8361015c565b91506101ae8261016d565b602082019050919050565b600060208201905081810360008301526101d281610196565b905091905056fea26469706673582212206e18eb9aba186756c7e4e0bffcd1f3b9e0dc7ecfb5bdaf3a0123758c7fe4b47264736f6c63430008180033",
  "linkReferences": {},
  "deployedLinkReferences": {}
}