{
  "_format": "hh-sol-artifact-1",
  "contractName": "ReputationSystem",
  "sourceName": "contracts/ReputationSystem.sol",
  "abi": [
    {
      "inputs": [
        {
          "internalType": "uint256",
          "name": "round",
          "type": "uint256"
        },
        {
          "internalType": "uint256",
          "name": "clientIndex",
          "type": "uint256"
        }
      ],
      "name": "getReputationScore",
      "outputs": [
        {
          "internalType": "uint256",
          "name": "",
          "type": "uint256"
        }
      ],
      "stateMutability": "view",
      "type": "function"
    },
    {
      "inputs": [
        {
          "internalType": "uint256",
          "name": "",
          "type": "uint256"
        },
        {
          "internalType": "uint256",
          "name": "",
          "type": "uint256"
        }
      ],
      "name": "reputationScores",
      "outputs": [
        {
          "internalType": "uint256",
          "name": "",
          "type": "uint256"
        }
      ],
      "stateMutability": "view",
      "type": "function"
    },
    {
      "inputs": [
        {
          "internalType": "uint256",
          "name": "round",
          "type": "uint256"
        },
        {
          "internalType": "uint256[]",
          "name": "scores",
          "type": "uint256[]"
        }
      ],
      "name": "setReputationScores",
      "outputs": [],
      "stateMutability": "nonpayable",
      "type": "function"
    }
  ],
  "bytecode": "0x608060405234801561001057600080fd5b506104e1806100206000396000f3fe608060405234801561001057600080fd5b50600436106100415760003560e01c806305afa135146100465780637ac79a70146100625780639f23712514610092575b600080fd5b610060600480360381019061005b91906102a3565b6100c2565b005b61007c60048036038101906100779190610303565b610168565b6040516100899190610352565b60405180910390f35b6100ac60048036038101906100a79190610303565b61018d565b6040516100b99190610352565b60405180910390f35b60328282905014610108576040517f08c379a00000000000000000000000000000000000000000000000000000000081526004016100ff906103f0565b60405180910390fd5b60005b60328110156101625782828281811061012757610126610410565b5b90506020020135600080868152602001908152602001600020600083815260200190815260200160002081905550808060010191505061010b565b50505050565b6000602052816000526040600020602052806000526040600020600091509150505481565b6000603282106101d2576040517f08c379a00000000000000000000000000000000000000000000000000000000081526004016101c99061048b565b60405180910390fd5b600080848152602001908152602001600020600083815260200190815260200160002054905092915050565b600080fd5b600080fd5b6000819050919050565b61021b81610208565b811461022657600080fd5b50565b60008135905061023881610212565b92915050565b600080fd5b600080fd5b600080fd5b60008083601f8401126102635761026261023e565b5b8235905067ffffffffffffffff8111156102805761027f610243565b5b60208301915083602082028301111561029c5761029b610248565b5b9250929050565b6000806000604084860312156102bc576102bb6101fe565b5b60006102ca86828701610229565b935050602084013567ffffffffffffffff8111156102eb576102ea610203565b5b6102f78682870161024d565b92509250509250925092565b6000806040838503121561031a576103196101fe565b5b600061032885828601610229565b925050602061033985828601610229565b9150509250929050565b61034c81610208565b82525050565b60006020820190506103676000830184610343565b92915050565b600082825260208201905092915050565b7f53636f726573206172726179206c656e677468206d757374206d61746368207460008201527f6f74616c20636c69656e74732e00000000000000000000000000000000000000602082015250565b60006103da602d8361036d565b91506103e58261037e565b604082019050919050565b60006020820190508181036000830152610409816103cd565b9050919050565b7f4e487b7100000000000000000000000000000000000000000000000000000000600052603260045260246000fd5b7f496e76616c696420636c69656e7420696e6465782e0000000000000000000000600082015250565b600061047560158361036d565b91506104808261043f565b602082019050919050565b600060208201905081810360008301526104a481610468565b905091905056fea26469706673582212200a269975fc85187a077e8cb32a515b6462d7fdde9eb649f657ff0ec0d7c159c164736f6c63430008180033",
  "linkReferences": {},
  "deployedLinkReferences": {}
}