{
  "_format": "hh-sol-artifact-1",
  "contractName": "RegisterFL",
  "sourceName": "contracts/RegisterFL.sol",
  "abi": [
    {
      "inputs": [
        {
          "internalType": "uint256",
          "name": "",
          "type": "uint256"
        }
      ],
      "name": "clientAddresses",
      "outputs": [
        {
          "internalType": "address",
          "name": "",
          "type": "address"
        }
      ],
      "stateMutability": "view",
      "type": "function"
    },
    {
      "inputs": [],
      "name": "getClientAddresses",
      "outputs": [
        {
          "internalType": "address[]",
          "name": "",
          "type": "address[]"
        }
      ],
      "stateMutability": "view",
      "type": "function"
    },
    {
      "inputs": [],
      "name": "getServerAddress",
      "outputs": [
        {
          "internalType": "address",
          "name": "",
          "type": "address"
        }
      ],
      "stateMutability": "view",
      "type": "function"
    },
    {
      "inputs": [
        {
          "internalType": "address",
          "name": "user",
          "type": "address"
        }
      ],
      "name": "getUserRole",
      "outputs": [
        {
          "internalType": "enum RegisterFL.Role",
          "name": "",
          "type": "uint8"
        }
      ],
      "stateMutability": "view",
      "type": "function"
    },
    {
      "inputs": [
        {
          "internalType": "address",
          "name": "user",
          "type": "address"
        }
      ],
      "name": "isRegistered",
      "outputs": [
        {
          "internalType": "bool",
          "name": "",
          "type": "bool"
        }
      ],
      "stateMutability": "view",
      "type": "function"
    },
    {
      "inputs": [
        {
          "internalType": "enum RegisterFL.Role",
          "name": "role",
          "type": "uint8"
        }
      ],
      "name": "register",
      "outputs": [],
      "stateMutability": "nonpayable",
      "type": "function"
    },
    {
      "inputs": [],
      "name": "serverAddress",
      "outputs": [
        {
          "internalType": "address",
          "name": "",
          "type": "address"
        }
      ],
      "stateMutability": "view",
      "type": "function"
    },
    {
      "inputs": [],
      "name": "userCount",
      "outputs": [
        {
          "internalType": "uint256",
          "name": "",
          "type": "uint256"
        }
      ],
      "stateMutability": "view",
      "type": "function"
    },
    {
      "inputs": [
        {
          "internalType": "address",
          "name": "",
          "type": "address"
        }
      ],
      "name": "users",
      "outputs": [
        {
          "internalType": "address",
          "name": "userAddress",
          "type": "address"
        },
        {
          "internalType": "uint256",
          "name": "registrationTime",
          "type": "uint256"
        },
        {
          "internalType": "enum RegisterFL.Role",
          "name": "role",
          "type": "uint8"
        }
      ],
      "stateMutability": "view",
      "type": "function"
    }
  ],
  "bytecode": "0x608060405234801561001057600080fd5b50610dd6806100206000396000f3fe608060405234801561001057600080fd5b50600436106100935760003560e01c8063c3c5a54711610066578063c3c5a54714610134578063c7acae2e14610164578063c80e71a514610182578063db420fe3146101a0578063f1987e11146101be57610093565b806307973ccf1461009857806327820851146100b657806361d689fa146100e6578063a87430ba14610102575b600080fd5b6100a06101ee565b6040516100ad91906108e1565b60405180910390f35b6100d060048036038101906100cb919061095f565b6101f4565b6040516100dd9190610a03565b60405180910390f35b61010060048036038101906100fb9190610a43565b610294565b005b61011c6004803603810190610117919061095f565b610552565b60405161012b93929190610a7f565b60405180910390f35b61014e6004803603810190610149919061095f565b6105a9565b60405161015b9190610ad1565b60405180910390f35b61016c610643565b6040516101799190610aec565b60405180910390f35b61018a610721565b6040516101979190610bc5565b60405180910390f35b6101a8610863565b6040516101b59190610aec565b60405180910390f35b6101d860048036038101906101d39190610c13565b610889565b6040516101e59190610aec565b60405180910390f35b60035481565b60006101ff826105a9565b61023e576040517f08c379a000000000000000000000000000000000000000000000000000000000815260040161023590610c9d565b60405180910390fd5b6000808373ffffffffffffffffffffffffffffffffffffffff1673ffffffffffffffffffffffffffffffffffffffff16815260200190815260200160002060020160009054906101000a900460ff169050919050565b60008073ffffffffffffffffffffffffffffffffffffffff166000803373ffffffffffffffffffffffffffffffffffffffff1673ffffffffffffffffffffffffffffffffffffffff16815260200190815260200160002060000160009054906101000a900473ffffffffffffffffffffffffffffffffffffffff1673ffffffffffffffffffffffffffffffffffffffff1614905060405180606001604052803373ffffffffffffffffffffffffffffffffffffffff1681526020014281526020018360018111156103685761036761098c565b5b8152506000803373ffffffffffffffffffffffffffffffffffffffff1673ffffffffffffffffffffffffffffffffffffffff16815260200190815260200160002060008201518160000160006101000a81548173ffffffffffffffffffffffffffffffffffffffff021916908373ffffffffffffffffffffffffffffffffffffffff1602179055506020820151816001015560408201518160020160006101000a81548160ff021916908360018111156104255761042461098c565b5b0217905550905050801561044c576003600081548092919061044690610cec565b91905055505b60018081111561045f5761045e61098c565b5b8260018111156104725761047161098c565b5b036104bd5733600260006101000a81548173ffffffffffffffffffffffffffffffffffffffff021916908373ffffffffffffffffffffffffffffffffffffffff16021790555061054e565b600060018111156104d1576104d061098c565b5b8260018111156104e4576104e361098c565b5b0361054d576001339080600181540180825580915050600190039060005260206000200160009091909190916101000a81548173ffffffffffffffffffffffffffffffffffffffff021916908373ffffffffffffffffffffffffffffffffffffffff1602179055505b5b5050565b60006020528060005260406000206000915090508060000160009054906101000a900473ffffffffffffffffffffffffffffffffffffffff16908060010154908060020160009054906101000a900460ff16905083565b60008073ffffffffffffffffffffffffffffffffffffffff166000808473ffffffffffffffffffffffffffffffffffffffff1673ffffffffffffffffffffffffffffffffffffffff16815260200190815260200160002060000160009054906101000a900473ffffffffffffffffffffffffffffffffffffffff1673ffffffffffffffffffffffffffffffffffffffff1614159050919050565b60008060018111156106585761065761098c565b5b6000803373ffffffffffffffffffffffffffffffffffffffff1673ffffffffffffffffffffffffffffffffffffffff16815260200190815260200160002060020160009054906101000a900460ff1660018111156106b9576106b861098c565b5b146106f9576040517f08c379a00000000000000000000000000000000000000000000000000000000081526004016106f090610d80565b60405180910390fd5b600260009054906101000a900473ffffffffffffffffffffffffffffffffffffffff16905090565b60606001808111156107365761073561098c565b5b6000803373ffffffffffffffffffffffffffffffffffffffff1673ffffffffffffffffffffffffffffffffffffffff16815260200190815260200160002060020160009054906101000a900460ff1660018111156107975761079661098c565b5b146107d7576040517f08c379a00000000000000000000000000000000000000000000000000000000081526004016107ce90610d80565b60405180910390fd5b600180548060200260200160405190810160405280929190818152602001828054801561085957602002820191906000526020600020905b8160009054906101000a900473ffffffffffffffffffffffffffffffffffffffff1673ffffffffffffffffffffffffffffffffffffffff168152602001906001019080831161080f575b5050505050905090565b600260009054906101000a900473ffffffffffffffffffffffffffffffffffffffff1681565b6001818154811061089957600080fd5b906000526020600020016000915054906101000a900473ffffffffffffffffffffffffffffffffffffffff1681565b6000819050919050565b6108db816108c8565b82525050565b60006020820190506108f660008301846108d2565b92915050565b600080fd5b600073ffffffffffffffffffffffffffffffffffffffff82169050919050565b600061092c82610901565b9050919050565b61093c81610921565b811461094757600080fd5b50565b60008135905061095981610933565b92915050565b600060208284031215610975576109746108fc565b5b60006109838482850161094a565b91505092915050565b7f4e487b7100000000000000000000000000000000000000000000000000000000600052602160045260246000fd5b600281106109cc576109cb61098c565b5b50565b60008190506109dd826109bb565b919050565b60006109ed826109cf565b9050919050565b6109fd816109e2565b82525050565b6000602082019050610a1860008301846109f4565b92915050565b60028110610a2b57600080fd5b50565b600081359050610a3d81610a1e565b92915050565b600060208284031215610a5957610a586108fc565b5b6000610a6784828501610a2e565b91505092915050565b610a7981610921565b82525050565b6000606082019050610a946000830186610a70565b610aa160208301856108d2565b610aae60408301846109f4565b949350505050565b60008115159050919050565b610acb81610ab6565b82525050565b6000602082019050610ae66000830184610ac2565b92915050565b6000602082019050610b016000830184610a70565b92915050565b600081519050919050565b600082825260208201905092915050565b6000819050602082019050919050565b610b3c81610921565b82525050565b6000610b4e8383610b33565b60208301905092915050565b6000602082019050919050565b6000610b7282610b07565b610b7c8185610b12565b9350610b8783610b23565b8060005b83811015610bb8578151610b9f8882610b42565b9750610baa83610b5a565b925050600181019050610b8b565b5085935050505092915050565b60006020820190508181036000830152610bdf8184610b67565b905092915050565b610bf0816108c8565b8114610bfb57600080fd5b50565b600081359050610c0d81610be7565b92915050565b600060208284031215610c2957610c286108fc565b5b6000610c3784828501610bfe565b91505092915050565b600082825260208201905092915050565b7f55736572206e6f74207265676973746572656400000000000000000000000000600082015250565b6000610c87601383610c40565b9150610c9282610c51565b602082019050919050565b60006020820190508181036000830152610cb681610c7a565b9050919050565b7f4e487b7100000000000000000000000000000000000000000000000000000000600052601160045260246000fd5b6000610cf7826108c8565b91507fffffffffffffffffffffffffffffffffffffffffffffffffffffffffffffffff8203610d2957610d28610cbd565b5b600182019050919050565b7f4163636573732064656e69656400000000000000000000000000000000000000600082015250565b6000610d6a600d83610c40565b9150610d7582610d34565b602082019050919050565b60006020820190508181036000830152610d9981610d5d565b905091905056fea2646970667358221220fc952b46d47c727feaee54cc98f6e4f15d15c3d92fd8e8538a76480e0fbbc61664736f6c63430008180033",
  "linkReferences": {},
  "deployedLinkReferences": {}
}