{
  "_format": "hh-sol-artifact-1",
  "contractName": "HybridModelLocal",
  "sourceName": "contracts/HybridModelLocal.sol",
  "abi": [
    {
      "anonymous": false,
      "inputs": [
        {
          "indexed": true,
          "internalType": "address",
          "name": "user",
          "type": "address"
        },
        {
          "indexed": false,
          "internalType": "uint256",
          "name": "penalty",
          "type": "uint256"
        }
      ],
      "name": "PenaltyCalculated",
      "type": "event"
    },
    {
      "inputs": [
        {
          "internalType": "address",
          "name": "",
          "type": "address"
        }
      ],
      "name": "breaches",
      "outputs": [
        {
          "internalType": "uint256",
          "name": "",
          "type": "uint256"
        }
      ],
      "stateMutability": "view",
      "type": "function"
    },
    {
      "inputs": [
        {
          "internalType": "address",
          "name": "user",
          "type": "address"
        }
      ],
      "name": "calculatePenalty",
      "outputs": [
        {
          "internalType": "uint256",
          "name": "",
          "type": "uint256"
        }
      ],
      "stateMutability": "nonpayable",
      "type": "function"
    },
    {
      "inputs": [
        {
          "internalType": "address",
          "name": "",
          "type": "address"
        }
      ],
      "name": "penalties",
      "outputs": [
        {
          "internalType": "uint256",
          "name": "",
          "type": "uint256"
        }
      ],
      "stateMutability": "view",
      "type": "function"
    },
    {
      "inputs": [
        {
          "internalType": "uint256",
          "name": "numBreaches",
          "type": "uint256"
        }
      ],
      "name": "registerBreach",
      "outputs": [],
      "stateMutability": "nonpayable",
      "type": "function"
    }
  ],
  "bytecode": "0x608060405234801561001057600080fd5b5061061d806100206000396000f3fe608060405234801561001057600080fd5b506004361061004c5760003560e01c80631380cc2c1461005157806331e8d9a61461008157806334e04b90146100b1578063e1c09a0c146100e1575b600080fd5b61006b60048036038101906100669190610351565b6100fd565b6040516100789190610397565b60405180910390f35b61009b60048036038101906100969190610351565b610266565b6040516100a89190610397565b60405180910390f35b6100cb60048036038101906100c69190610351565b61027e565b6040516100d89190610397565b60405180910390f35b6100fb60048036038101906100f691906103de565b610296565b005b6000806000808473ffffffffffffffffffffffffffffffffffffffff1673ffffffffffffffffffffffffffffffffffffffff168152602001908152602001600020549050670de0b6b3a7640000811061018b576040517f08c379a00000000000000000000000000000000000000000000000000000000081526004016101829061048e565b60405180910390fd5b6000606482606461019c91906104dd565b6001846101a99190610511565b846101b49190610545565b6101be9190610545565b6101c891906105b6565b905080600160008673ffffffffffffffffffffffffffffffffffffffff1673ffffffffffffffffffffffffffffffffffffffff168152602001908152602001600020819055508373ffffffffffffffffffffffffffffffffffffffff167f6a3017b44a6238f6a2cd5c24aa72e80d048a69e4ef52fa9ad2fafede38d12f70826040516102549190610397565b60405180910390a28092505050919050565b60016020528060005260406000206000915090505481565b60006020528060005260406000206000915090505481565b806000803373ffffffffffffffffffffffffffffffffffffffff1673ffffffffffffffffffffffffffffffffffffffff16815260200190815260200160002060008282546102e49190610511565b9250508190555050565b600080fd5b600073ffffffffffffffffffffffffffffffffffffffff82169050919050565b600061031e826102f3565b9050919050565b61032e81610313565b811461033957600080fd5b50565b60008135905061034b81610325565b92915050565b600060208284031215610367576103666102ee565b5b60006103758482850161033c565b91505092915050565b6000819050919050565b6103918161037e565b82525050565b60006020820190506103ac6000830184610388565b92915050565b6103bb8161037e565b81146103c657600080fd5b50565b6000813590506103d8816103b2565b92915050565b6000602082840312156103f4576103f36102ee565b5b6000610402848285016103c9565b91505092915050565b600082825260208201905092915050565b7f62726561636820636f756e7420697320746f6f20686967682c206974206d617960008201527f206361757365206f766572666c6f770000000000000000000000000000000000602082015250565b6000610478602f8361040b565b91506104838261041c565b604082019050919050565b600060208201905081810360008301526104a78161046b565b9050919050565b7f4e487b7100000000000000000000000000000000000000000000000000000000600052601160045260246000fd5b60006104e88261037e565b91506104f38361037e565b925082820390508181111561050b5761050a6104ae565b5b92915050565b600061051c8261037e565b91506105278361037e565b925082820190508082111561053f5761053e6104ae565b5b92915050565b60006105508261037e565b915061055b8361037e565b92508282026105698161037e565b915082820484148315176105805761057f6104ae565b5b5092915050565b7f4e487b7100000000000000000000000000000000000000000000000000000000600052601260045260246000fd5b60006105c18261037e565b91506105cc8361037e565b9250826105dc576105db610587565b5b82820490509291505056fea26469706673582212207177058cb82700d47abc11ace7b7ac77d325dc0534e498ab6f1b7e0e845a337264736f6c63430008180033",
  "linkReferences": {},
  "deployedLinkReferences": {}
}