{
  "_format": "hh-sol-artifact-1",
  "contractName": "WeightSubmission",
  "sourceName": "contracts/WeightSubmission.sol",
  "abi": [
    {
      "inputs": [
        {
          "internalType": "address",
          "name": "_server",
          "type": "address"
        }
      ],
      "stateMutability": "nonpayable",
      "type": "constructor"
    },
    {
      "anonymous": false,
      "inputs": [
        {
          "indexed": true,
          "internalType": "address",
          "name": "client",
          "type": "address"
        },
        {
          "indexed": false,
          "internalType": "uint256",
          "name": "weight",
          "type": "uint256"
        },
        {
          "indexed": false,
          "internalType": "uint8",
          "name": "round",
          "type": "uint8"
        }
      ],
      "name": "WeightSubmitted",
      "type": "event"
    },
    {
      "inputs": [
        {
          "internalType": "uint8",
          "name": "",
          "type": "uint8"
        },
        {
          "internalType": "address",
          "name": "",
          "type": "address"
        }
      ],
      "name": "hasSubmitted",
      "outputs": [
        {
          "internalType": "bool",
          "name": "",
          "type": "bool"
        }
      ],
      "stateMutability": "view",
      "type": "function"
    },
    {
      "inputs": [],
      "name": "maxRounds",
      "outputs": [
        {
          "internalType": "uint8",
          "name": "",
          "type": "uint8"
        }
      ],
      "stateMutability": "view",
      "type": "function"
    },
    {
      "inputs": [
        {
          "internalType": "uint8",
          "name": "_round",
          "type": "uint8"
        }
      ],
      "name": "readRoundWeights",
      "outputs": [
        {
          "internalType": "address[]",
          "name": "",
          "type": "address[]"
        },
        {
          "internalType": "uint256[]",
          "name": "",
          "type": "uint256[]"
        }
      ],
      "stateMutability": "view",
      "type": "function"
    },
    {
      "inputs": [
        {
          "internalType": "uint8",
          "name": "",
          "type": "uint8"
        },
        {
          "internalType": "uint256",
          "name": "",
          "type": "uint256"
        }
      ],
      "name": "roundClients",
      "outputs": [
        {
          "internalType": "address",
          "name": "",
          "type": "address"
        }
      ],
      "stateMutability": "view",
      "type": "function"
    },
    {
      "inputs": [
        {
          "internalType": "uint8",
          "name": "",
          "type": "uint8"
        },
        {
          "internalType": "address",
          "name": "",
          "type": "address"
        }
      ],
      "name": "roundWeights",
      "outputs": [
        {
          "internalType": "uint256",
          "name": "",
          "type": "uint256"
        }
      ],
      "stateMutability": "view",
      "type": "function"
    },
    {
      "inputs": [],
      "name": "server",
      "outputs": [
        {
          "internalType": "address",
          "name": "",
          "type": "address"
        }
      ],
      "stateMutability": "view",
      "type": "function"
    },
    {
      "inputs": [
        {
          "internalType": "uint8",
          "name": "_round",
          "type": "uint8"
        },
        {
          "internalType": "uint256",
          "name": "_weight",
          "type": "uint256"
        }
      ],
      "name": "submitWeight",
      "outputs": [],
      "stateMutability": "nonpayable",
      "type": "function"
    }
  ],
  "bytecode": "0x608060405234801561001057600080fd5b50604051610e5e380380610e5e833981810160405281019061003291906100dc565b80600360006101000a81548173ffffffffffffffffffffffffffffffffffffffff021916908373ffffffffffffffffffffffffffffffffffffffff16021790555050610109565b600080fd5b600073ffffffffffffffffffffffffffffffffffffffff82169050919050565b60006100a98261007e565b9050919050565b6100b98161009e565b81146100c457600080fd5b50565b6000815190506100d6816100b0565b92915050565b6000602082840312156100f2576100f1610079565b5b6000610100848285016100c7565b91505092915050565b610d46806101186000396000f3fe608060405234801561001057600080fd5b506004361061007d5760003560e01c806380d980911161005b57806380d9809114610100578063b80746bd1461011c578063cfb6435c1461014d578063fd922a421461017d5761007d565b80631faf969b1461008257806322189e69146100a057806328a1e422146100d0575b600080fd5b61008a61019b565b604051610097919061077e565b60405180910390f35b6100ba60048036038101906100b59190610828565b6101a0565b6040516100c79190610883565b60405180910390f35b6100ea60048036038101906100e59190610828565b6101cf565b6040516100f791906108b7565b60405180910390f35b61011a600480360381019061011591906108fe565b6101f4565b005b6101366004803603810190610131919061093e565b61044d565b604051610144929190610ae7565b60405180910390f35b610167600480360381019061016291906108fe565b6106ee565b6040516101749190610b2d565b60405180910390f35b61018561073c565b6040516101929190610b2d565b60405180910390f35b603281565b60026020528160005260406000206020528060005260406000206000915091509054906101000a900460ff1681565b6000602052816000526040600020602052806000526040600020600091509150505481565b60008260ff1611801561020e5750603260ff168260ff1611155b61024d576040517f08c379a000000000000000000000000000000000000000000000000000000000815260040161024490610ba5565b60405180910390fd5b600260008360ff1660ff16815260200190815260200160002060003373ffffffffffffffffffffffffffffffffffffffff1673ffffffffffffffffffffffffffffffffffffffff16815260200190815260200160002060009054906101000a900460ff1661039f57600160008360ff1660ff168152602001908152602001600020339080600181540180825580915050600190039060005260206000200160009091909190916101000a81548173ffffffffffffffffffffffffffffffffffffffff021916908373ffffffffffffffffffffffffffffffffffffffff1602179055506001600260008460ff1660ff16815260200190815260200160002060003373ffffffffffffffffffffffffffffffffffffffff1673ffffffffffffffffffffffffffffffffffffffff16815260200190815260200160002060006101000a81548160ff0219169083151502179055505b806000808460ff1660ff16815260200190815260200160002060003373ffffffffffffffffffffffffffffffffffffffff1673ffffffffffffffffffffffffffffffffffffffff168152602001908152602001600020819055503373ffffffffffffffffffffffffffffffffffffffff167f48c31b754f9a0bb96a8833bc0dfa8c8ebc9c776a3ba7cb6f6e743cb5c46d44818284604051610441929190610bc5565b60405180910390a25050565b606080600360009054906101000a900473ffffffffffffffffffffffffffffffffffffffff1673ffffffffffffffffffffffffffffffffffffffff163373ffffffffffffffffffffffffffffffffffffffff16146104e0576040517f08c379a00000000000000000000000000000000000000000000000000000000081526004016104d790610c3a565b60405180910390fd5b60008360ff161180156104fa5750603260ff168360ff1611155b610539576040517f08c379a000000000000000000000000000000000000000000000000000000000815260040161053090610ba5565b60405180910390fd5b6000600160008560ff1660ff1681526020019081526020016000208054806020026020016040519081016040528092919081815260200182805480156105d457602002820191906000526020600020905b8160009054906101000a900473ffffffffffffffffffffffffffffffffffffffff1673ffffffffffffffffffffffffffffffffffffffff168152602001906001019080831161058a575b505050505090506000815167ffffffffffffffff8111156105f8576105f7610c5a565b5b6040519080825280602002602001820160405280156106265781602001602082028036833780820191505090505b50905060005b82518160ff1610156106e0576000808760ff1660ff1681526020019081526020016000206000848360ff168151811061066857610667610c89565b5b602002602001015173ffffffffffffffffffffffffffffffffffffffff1673ffffffffffffffffffffffffffffffffffffffff16815260200190815260200160002054828260ff16815181106106c1576106c0610c89565b5b60200260200101818152505080806106d890610ce7565b91505061062c565b508181935093505050915091565b6001602052816000526040600020818154811061070a57600080fd5b906000526020600020016000915091509054906101000a900473ffffffffffffffffffffffffffffffffffffffff1681565b600360009054906101000a900473ffffffffffffffffffffffffffffffffffffffff1681565b600060ff82169050919050565b61077881610762565b82525050565b6000602082019050610793600083018461076f565b92915050565b600080fd5b6107a781610762565b81146107b257600080fd5b50565b6000813590506107c48161079e565b92915050565b600073ffffffffffffffffffffffffffffffffffffffff82169050919050565b60006107f5826107ca565b9050919050565b610805816107ea565b811461081057600080fd5b50565b600081359050610822816107fc565b92915050565b6000806040838503121561083f5761083e610799565b5b600061084d858286016107b5565b925050602061085e85828601610813565b9150509250929050565b60008115159050919050565b61087d81610868565b82525050565b60006020820190506108986000830184610874565b92915050565b6000819050919050565b6108b18161089e565b82525050565b60006020820190506108cc60008301846108a8565b92915050565b6108db8161089e565b81146108e657600080fd5b50565b6000813590506108f8816108d2565b92915050565b6000806040838503121561091557610914610799565b5b6000610923858286016107b5565b9250506020610934858286016108e9565b9150509250929050565b60006020828403121561095457610953610799565b5b6000610962848285016107b5565b91505092915050565b600081519050919050565b600082825260208201905092915050565b6000819050602082019050919050565b6109a0816107ea565b82525050565b60006109b28383610997565b60208301905092915050565b6000602082019050919050565b60006109d68261096b565b6109e08185610976565b93506109eb83610987565b8060005b83811015610a1c578151610a0388826109a6565b9750610a0e836109be565b9250506001810190506109ef565b5085935050505092915050565b600081519050919050565b600082825260208201905092915050565b6000819050602082019050919050565b610a5e8161089e565b82525050565b6000610a708383610a55565b60208301905092915050565b6000602082019050919050565b6000610a9482610a29565b610a9e8185610a34565b9350610aa983610a45565b8060005b83811015610ada578151610ac18882610a64565b9750610acc83610a7c565b925050600181019050610aad565b5085935050505092915050565b60006040820190508181036000830152610b0181856109cb565b90508181036020830152610b158184610a89565b90509392505050565b610b27816107ea565b82525050565b6000602082019050610b426000830184610b1e565b92915050565b600082825260208201905092915050565b7f526f756e64206f7574206f662072616e67650000000000000000000000000000600082015250565b6000610b8f601283610b48565b9150610b9a82610b59565b602082019050919050565b60006020820190508181036000830152610bbe81610b82565b9050919050565b6000604082019050610bda60008301856108a8565b610be7602083018461076f565b9392505050565b7f4e6f7420617574686f72697a656420746f207265616420646174610000000000600082015250565b6000610c24601b83610b48565b9150610c2f82610bee565b602082019050919050565b60006020820190508181036000830152610c5381610c17565b9050919050565b7f4e487b7100000000000000000000000000000000000000000000000000000000600052604160045260246000fd5b7f4e487b7100000000000000000000000000000000000000000000000000000000600052603260045260246000fd5b7f4e487b7100000000000000000000000000000000000000000000000000000000600052601160045260246000fd5b6000610cf282610762565b915060ff8203610d0557610d04610cb8565b5b60018201905091905056fea26469706673582212207ec0ff052ca6de07339e331657a806b38e38d038d2d9c14ddfe04bf2654808d164736f6c63430008180033",
  "linkReferences": {},
  "deployedLinkReferences": {}
}